:020000040800F2
:10000000F8940020990200080D390008E534000832
:10001000CD380008CD05000843410008000000006D
:10002000000000000000000000000000DD010008EA
:10003000F30600080000000031020008F53900084E
:10004000B3020008B3020008B3020008B3020008BC
:10005000B3020008B3020008B3020008B3020008AC
:10006000B3020008B3020008B3020008B30200089C
:10007000B3020008B3020008B3020008B30200088C
:10008000B3020008B3020008B3020008B30200087C
:10009000B3020008B3020008B3020008B30200086C
:1000A000B30200085D3B0008B3020008B302000879
:1000B000B3020008B3020008B3020008B30200084C
:1000C000B3020008B3020008B3020008B30200083C
:1000D000B3020008B3020008B3020008B30200082C
:1000E000B3020008B3020008B3020008B30200081C
:1000F000B3020008B3020008B3020008B30200080C
:10010000B3020008B3020008B3020008B3020008FB
:10011000B3020008B3020008B3020008B3020008EB
:10012000D1050008B3020008B3020008B3020008BA
:10013000B3020008B3020008B3020008B3020008CB
:10014000B3020008B3020008B302000849390008EE
:10015000B3020008B3020008B3020008B3020008AB
:10016000B3020008B3020008B3020008B30200089B
:10017000B3020008B3020008B30200080000000048
:10018000B3020008B3020008B3020008B30200087B
:10019000B3020008B3020008B3020008B30200086B
:1001A000B3020008B3020008B3020008B30200085B
:1001B000B3020008B3020008B3020008B30200084B
:1001C000B3020008B3020008DFF80CD000F0EAF830
:1001D000004800479D430008F89400202B4B196805
:1001E0000868B0E8F04F80F30988BFF36F8F4FF0D5
:1001F000000080F311887047000000000648006886
:10020000006880F3088862B661B6BFF34F8FBFF312
:100210006F8F00DF00BF00BF08ED00E0DFF80C00CB
:10022000016841F470010160704700BF88ED00E093
:10023000EFF30980BFF36F8F144B1A681EF0100F95
:1002400008BF20ED108A20E9F04F106008B44FF08D
:10025000500072B680F31188BFF34F8FBFF36F8FDA
:1002600062B605F017FB4FF0000080F3118808BC60
:1002700019680868B0E8F04F1EF0100F08BFB0EC26
:10028000108A80F30988BFF36F8F704760000020E9
:10029000EFF3058070470000064880470648004796
:1002A000FEE7FEE7FEE7FEE7FEE7FEE7FEE7FEE726
:1002B000FEE7FEE7F93A0008C90100082DE9F05F02
:1002C0000546002092469B468846064681464024C5
:1002D0001BE0284641464746224600F053F8534665
:1002E0005A46C01A914110D311461846224600F0D2
:1002F0003AF82D1A67EB01084F46224601200021EB
:1003000000F031F817EB00094E41201EA4F1010462
:10031000DFDC484631462A464346BDE8F09F40EAC6
:1003200001039B0703D009E008C9121F08C0042A73
:10033000FAD203E011F8013B00F8013B521EF9D25A
:100340007047D2B201E000F8012B491EFBD2704782
:100350000022F6E710B513460A4604461946FFF791
:10036000F0FF204610BD202A04DB203A00FA02F1FB
:10037000002070479140C2F1200320FA03F3194393
:1003800090407047202A04DB203A21FA02F0002135
:10039000704721FA02F3D040C2F120029140084395
:1003A00019467047064C074D06E0E06840F001032F
:1003B00094E8070098471034AC42F6D3FFF708FFE3
:1003C000486200086862000870B50546AC6B206C96
:1003D00000F0500050BB206C40F400702064206896
:1003E000806800F04050E8B9A069D8B92068C06AB8
:1003F00000F4700020B12068806800F4806088B943
:100400002068406820F0200021684860206C20F4BB
:1004100080702064206C00F4805018B9206C40F08B
:1004200001002064204600F06FFA03E0A06BC16C6D
:100430002846884770BD70B50546AC6B40202064E7
:10044000606C40F004006064204600F05FFA70BD0C
:1004500070B50446A56B284600F057FA70BD000041
:100460005749096821F44031564AC2F8041311462D
:10047000D1F8041342681143514A11600168496878
:1004800021F480710268516001684A68016942EA9A
:100490000121026851600168496821F040710268D9
:1004A00051600168496882681143026851600168BF
:1004B000896821F400610268916001688968C268F6
:1004C000114302689160404A816A914218D00168E4
:1004D000896821F070610268916001688968826AA8
:1004E0001143026891600168896821F040510268F7
:1004F000916001688968C26A1143026891600BE0EB
:100500000168896821F070610268916001688968FA
:1005100021F04051026891600168896821F0020170
:100520000268916001688A68816942EA4101026853
:100530009160016AA1B10168496841F400610268F3
:1005400051600168496821F46041026851600168A6
:100550004A68416A491E42EA41310268516005E039
:100560000168496821F40061026851600168C96A44
:1005700021F470010268D1620168CA6A818B491E48
:1005800042EA01510268D1620168896821F4007170
:100590000268916001688A68016B42EA4121026841
:1005A00091600168896821F4806102689160016846
:1005B0008A68416942EA81210268916070470000BF
:1005C00004230140002001400100000F00BFFEE7AE
:1005D00010B5012002490860024800F051FB10BD2F
:1005E00010000020F0000020014608781038182381
:1005F000B0FBF3F20848805CC865032A05D9086897
:100600006FF30900001D886503E008686FF30900B7
:100610008865886D70470000106200080146002060
:100620008A6A8B69CBB932B1012A0DD0022A03D074
:10063000032A10D10EE000BFCB6A03F08073B3F140
:10064000807F00D1012007E0CB6AB3F1C07F00D1E9
:10065000012001E000E000BF34E08B69B3F5005FEA
:100660001AD132B1012A07D0022A03D0032A11D1AC
:100670000AE000BF01200EE0CB6A03F08073B3F103
:10068000807F00D1012006E0CB6AB3F1C07F00D1AA
:10069000012000E000BF15E032B1012A05D0022A96
:1006A00004D0032A0CD103E000BF00BF012008E002
:1006B000CB6A03F08073B3F1807F00D1012000E0AA
:1006C00000BF00BF704730B50468246824F480245C
:1006D00005682C60046863608468402C04D1046859
:1006E000A2600468E16003E00468A1600468E2605D
:1006F00030BD704770B505460C46002012490860B1
:1007000004221249124800F08BF900BF0E4800681D
:100710000028FBD00E4800F027FA0C48008825F886
:1007200014000A48418805F5167020F8141007488F
:10073000818805F5966020F814100448C18805F5F5
:10074000E16020F8141070BD100000209C00002013
:10075000A800002018B502460020009000BF92F8C3
:100760003C00012801D1022018BD012082F83C0084
:1007700000BF0868092822D91068C0680B780A3BB6
:1007800003EB43040723A34098431368D860594BF5
:100790000868984207D11068C0680B7A40EA036085
:1007A0001368D8601FE00B780A3B03EB43038868AB
:1007B00098401368DB6818431368D86013E010682A
:1007C00000690B7803EB43040723A34098431368A5
:1007D00018610B7803EB43038868984013681B6922
:1007E0001843136818614868072817D21068406BCF
:1007F0000B795B1E03EB83041F23A340984313680C
:100800005863088880B20B795B1E03EB8303984022
:1008100013685B6B18431368586331E048680D2810
:1008200017D21068006B0B79DB1F03EB83041F23C7
:10083000A340984313681863088880B20B79DB1FC4
:1008400003EB8303984013681B6B1843136818630A
:1008500016E01068C06A0B790D3B03EB83041F237D
:10086000A34098431368D862088880B20B790D3B87
:1008700003EB830398401368DB6A18431368D8625C
:100880001D4B1068984208D10868122805D11B48F2
:10089000006840F48000C3F80403174B10689842C6
:1008A00020D1144B0868984202D00868112819D149
:1008B0001248006840F40000104B18600D4B0868A7
:1008C00098420FD10E4800680E4BB0FBF3F000EBDE
:1008D00080004000009002E00098401E00900098C8
:1008E0000028F9D100BF002082F83C0000BF00BF03
:1008F0003AE70000120000100020014004230140EC
:100900000000002040420F00704770477047000011
:1009100070B5044600250CB9012070BD1549A06AC8
:10092000884200D000BF206C30B90020606484F899
:100930003C00204600F020F8206C00F0100088B940
:10094000206C20F4885040F0020020642046FFF71D
:1009500087FD00206064206C20F0020040F0010060
:10096000206400E0012500BF002084F83C0000BFA7
:100970002846D2E70100000F10B586B004461F4993
:100980002068884237D100BF1D48006840F480705D
:100990001B4908600846006800F48070009000BFA2
:1009A00000BF1F200190032002900020039001A9A6
:1009B000144800F05FFB14481449086000204860A8
:1009C000002112488160C1604FF4806101614900DB
:1009D0004161890081610021C1610162416200F0D1
:1009E0006FFA18B1B2210AA003F0ADFB00BF0748AF
:1009F000A063846300BF06B010BD0000002001406A
:100A0000443802400000024010640240F000002020
:100A10002E2E2F5372632F6164632E63000000003B
:100A2000F8B504460D4616460020009000BF94F825
:100A30003C00012801D10220F8BD012084F83C00CF
:100A400000BF2068806800F00100A0B920688068BD
:100A500040F00100216888603C4800683C49B0FBD8
:100A6000F1F000EB4000009002E00098401E009082
:100A700000980028F9D12068806800F00100002863
:100A800062D0206C40F20161884340F480702064A1
:100A90002068406800F4806028B1206C20F4005089
:100AA00040F480502064206C00F4805020B1606CD1
:100AB00020F00600606401E00020606400BF0020B8
:100AC00084F83C0000BF2348A16BC8632248A16B97
:100AD00008642248A16BC8646FF022002168086096
:100AE0002068406840F08060216848602068806825
:100AF00040F4807021688860226802F14C0133461E
:100B00002A46A06B00F052FA1548006800F01F005A
:100B100058B92068806800F0405028B92068806883
:100B200040F08040216888600EE00E4920688842CD
:100B30000AD12068806800F0405028B92068806899
:100B400040F0804021688860002075E700000020A8
:100B500040420F00C9030008510400083704000890
:100B6000042301400020014070B50446002500BF69
:100B700094F83C00012801D1022070BD012084F8C6
:100B80003C0000BF2068806820F001002168886078
:100B90002068806800F00100A8B92068806820F40F
:100BA000807021688860A06B00F014F8054620680A
:100BB000406820F0806021684860206C20F48850F4
:100BC00040F00100206400BF002084F83C0000BF1A
:100BD0002846D2E770B50446A56D00F069FB0646CD
:100BE00094F83500022808D08020606500BF0020FE
:100BF00084F8340000BF012070BD2068006820F038
:100C00001600216808602068406920F08000216893
:100C10004861206C08B9A06C28B12068006820F0F9
:100C20000800216808602068006820F00100216841
:100C300008600FE000F03CFB801B05280AD920204B
:100C4000606500BF002084F8340000BF032084F8F2
:100C50003500D1E72068006800F001000028E9D1E4
:100C600094F85C103F208840A86000BF002084F802
:100C7000340000BF012084F835000020BCE70000EC
:100C8000F8B50446002000908C4800684FF41651D7
:100C9000B0FBF1F7A56D2E6894F85C100820884031
:100CA000304098B12068006800F0040070B12068FE
:100CB000006820F004002168086094F85C100820A7
:100CC0008840A860606D40F00100606594F85C1099
:100CD00001208840304068B12068406900F0800001
:100CE00040B194F85C1001208840A860606D40F02D
:100CF0000200606594F85C1004208840304068B1C0
:100D00002068006800F0020040B194F85C100420F4
:100D10008840A860606D40F00400606594F85C1045
:100D200010208840304078B32068006800F0080048
:100D300050B394F85C1010208840A86020680068C8
:100D400000F4802080B12068006800F4002028B9F9
:100D5000206CC8B12046216C884715E0A06C98B182
:100D60002046A16C88470FE02068006800F480707E
:100D700028B92068006820F0080021680860206C0D
:100D800010B12046216C884794F85C1020208840E0
:100D90003040002865D02068006800F0100000286E
:100DA0005FD094F85C1020208840A86094F835004B
:100DB000052828D12068006820F016002168086006
:100DC0002068406920F0800021684861206C08B9E3
:100DD000A06C28B12068006820F008002168086035
:100DE00094F85C103F208840A86000BF002084F881
:100DF000340000BF012084F83500206D10B120467A
:100E0000216D8847F8BD2068006800F4802080B11B
:100E10002068006800F4002028B9606C10B12046FA
:100E2000616C88471DE0E06BD8B12046E16B8847D4
:100E300017E02068006800F4807068B920680068D6
:100E400020F010002168086000BF002084F8340002
:100E500000BF012084F83500E06B10B12046E16B43
:100E60008847606D38B3606D00F00100F0B1052077
:100E700084F835002068006820F0010021680860CF
:100E800000BF0098401C0090B84200D905E02068DF
:100E9000006800F001000028F3D100BF00BF00206F
:100EA00084F8340000BF012084F83500E06C10B1F4
:100EB0002046E16C884700BFA4E700000000002046
:100EC0002DE9F0410446002500F0F2F9074614B977
:100ED0000120BDE8F081606A00B100BF00BF0020C2
:100EE00084F8340000BF022084F8350020680068D0
:100EF00020F00100216808600AE000F0D9F9C01B69
:100F0000052805D920206065032084F83500E0E736
:100F10002068006800F001000028EED12068056814
:100F200021480540D4E901010843E16808432169EB
:100F3000084361690843A1690843E1690843216ADC
:100F400008430543606A042803D1D4E90B01084330
:100F50000543206805602068456925F00705606A3B
:100F60000543606A04280DD1A06A0543E06A48B1D0
:100F70002046FFF753FB28B140206065012084F82C
:100F80003500A6E7206845612046FFF72DFB0646A1
:100F900094F85C103F208840B0600020606501201C
:100FA00084F83500002094E73F8010F02DE9F047E9
:100FB00004460D4616461F464FF00008D4F85890D8
:100FC00000BF94F83400012802D10220BDE8F08768
:100FD000012084F8340000BF94F8350001282BD19B
:100FE000022084F83500002060653B4632462946E1
:100FF0002046FFF768FB94F85C103F208840C9F852
:1010000008002068006840F0160021680860206829
:10101000406940F0800021684861206C28B1206858
:10102000006840F00800216808602068006840F00F
:1010300001002168086006E000BF002084F8340049
:1010400000BF4FF002084046C0E7000070B50446FC
:1010500000F02EF906462546681C10B104480078B9
:10106000054400BF00F024F9801BA842FAD370BDEC
:101070000C000020F8B502460B4600210025002494
:10108000002000BFE4E0012606FA01F51E6806EA2A
:101090000504AC4271D15E68022E02D05E68122E49
:1010A00013D1CF0802F1200656F827004E07F70E9D
:1010B0000F26BE40B0434F07FF0E1E69BE403043AF
:1010C000CF0802F1200646F8270010684F000326DB
:1010D000BE40B0431E7906F003064F00BE403043C9
:1010E00010605E68012E08D05E68022E05D05E6832
:1010F000112E02D05E68122E13D190684F00032685
:10110000BE40B0434F00DE68BE4030439060506840
:1011100001268E40B0431E79C6F300168E40304340
:101120005060D0684F000326BE40B0434F009E6819
:10113000BE403043D0605E6806F08056B6F1805FF6
:10114000A8D100BF444E366846F48046424F3E6008
:101150003E46366806F48046009600BF00BF3F4E0C
:101160008F0856F827008E07370F0F26BE40B04372
:101170003B4EB24202D100262EE068E0394EB24228
:1011800001D1012628E0384EB24201D1022623E0E7
:10119000364EB24201D103261EE0354EB24201D195
:1011A000042619E0334EB24201D1052614E0324E36
:1011B000B24201D106260FE0304EB24201D10726DD
:1011C0000AE02F4EB24201D1082605E02D4EB24270
:1011D00001D1092600E00A268F073F0FBE403043A9
:1011E0001E4E8F0846F82700274E3068A0435E68E1
:1011F00006F48036B6F5803F00D12043224E3060A1
:10120000361D3068A0435E6806F40036B6F5003F30
:1012100000D120431C4E361D3060361D3068A0437F
:101220005E6806F48016B6F5801F00D12043164E86
:1012300008363060361D3068A0435E6806F400163C
:10124000B6F5001F00D120430F4E0C363060491C0C
:101250001029FFF418AFF8BD4438024008380140A7
:10126000000002400004024000080240000C02405E
:10127000001002400014024000180240001C02400E
:101280000020024000240240003C01400246136955
:101290000B400BB1012000E00020704742694A403A
:1012A000426170470AB1816101E00B0483617047BC
:1012B00001480068704700000400002010B5044693
:1012C000D4F8BC0202F0E7FC10BD10B50446D4F817
:1012D000BC0202F0FEFC10BD70B504460D46164679
:1012E000D4F8BC0202F025FD70BD2DE9F0410446A2
:1012F000D4F800804646206802F0CAFD012871D16A
:10130000206802F0AEFE08B9BDE8F081206802F066
:10131000A8FE00F40010B0F5001F03D14FF4001038
:1013200021684861206802F09CFE00F48010B0F54E
:10133000801F03D14FF4801021684861206802F0BB
:1013400090FE00F08060B0F1806F03D14FF08060BC
:1013500021684861206802F084FE00F00200022843
:1013600001D121684861206802F07BFE00F0005046
:10137000B0F1005F10D1D6F8400420F02E00C6F87E
:1013800040042046FFF7A1FF0121206802F047FE3C
:101390004FF0005021684861206802F062FE00F0C2
:1013A0008070B0F1807F02D1204601F0A6FF206856
:1013B00002F057FE00F00800082805D1204600F092
:1013C00058F8082021684861206802F04AFE00F0C1
:1013D0000070B0F1007F27D1206802F019FE0746A7
:1013E00000251AE035E005F00F0101208840384063
:1013F00090B106F5A06000EB4510006800F40040D5
:10140000B0F5004F04D1E9B2204601F022FA03E022
:10141000E9B2204601F0D5FC6D1CA068A842E2D8D4
:101420004FF0007021684861206802F01AFEC0F396
:10143000001070B12068806920F010002168886178
:10144000204601F0CBFF2068806940F01000216841
:10145000886100BF58E710B50446D4F8BC0202F01A
:1014600072FC10BD10B50446D4F8BC0202F06FFC4B
:1014700010BD10B50446D4F8BC0202F04FFC10BDFC
:1014800010B5044600BF94F8B802012801D102202B
:1014900010BD012084F8B80200BF206802F0C3FC30
:1014A0000121206802F09AFC00BF002084F8B802F5
:1014B00000BF00BFECE710B5044600BF94F8B802C7
:1014C000012801D1022010BD012084F8B80200BF1C
:1014D000206802F0DCFD00BF002084F8B80200BFE5
:1014E00000BFF0E703480068034909780844014950
:1014F00008607047040000200C00002010B5032095
:1015000000F0E2F8002000F005F800F047F80020B5
:1015100010BD000070B588B00446002500260022EA
:101520002146192000F091F8192000F081F800BF41
:101530001648006840F00100144908600846006839
:1015400000F00100019000BF00BF02A903A800F055
:101550004FFD00F075FD45000D48B5FBF0F0461E4F
:101560000C480D49086040F2E7310B48C160466005
:1015700000210161816001F055F820B9064801F0B1
:101580006CF808B070BD0120FBE700004438024051
:1015900040420F00000001405C04002008B500BF7D
:1015A0002248006840F080502049086008460068E2
:1015B00000F08050009000BF00BF00BF081D006811
:1015C00040F48040091D08600846006800F480402F
:1015D000009000BF00BF032000F076F80022114603
:1015E0006FF00B0000F031F8002211466FF00A0096
:1015F00000F02BF8002211466FF0090000F025F8EA
:1016000000221146501F00F020F800221146101F42
:1016100000F01BF800220F21901E00F016F80022A7
:101620000F21501E00F011F808BD000040380240A4
:1016300000BF00F01F02012191404209920002F117
:10164000E022C2F8001100BF70472DE9F05F80462C
:101650000D461646002702F05BF9074639462A4632
:10166000334601F00700C0F1070ABAF1040F02D9AE
:101670004FF0040A01E0C0F1070AD14600F1040A64
:10168000BAF1070F02D24FF0000A01E0A0F1030AFD
:10169000D4464FF0010A0AFA09FAAAF1010A0AEA45
:1016A000020A0AFA0CFA4FF0010B0BFA0CFBABF131
:1016B000010B0BEA030B4AEA0B042146404602F0F9
:1016C0002FF9BDE8F09F000000BF00F00702064BB5
:1016D00019684FF6FF031940044B0B4343EA0221FC
:1016E000014B196000BF70470CED00E00000FA05E7
:1016F00038B5002400BF2048006840F080501E49E3
:1017000008600846006800F08050009000BF00BFED
:101710001A48006840F4803018490860FFF7C8FD97
:10172000044607E0FFF7C4FD001BB0F57A7F01D93E
:10173000032038BD1148406800F48030B0F5803F88
:10174000F0D10E48006840F400300C490860FFF703
:10175000AFFD044607E0FFF7ABFD001BB0F57A7F55
:1017600001D90320E5E70548406800F40030B0F5F2
:10177000003FF0D10020DCE740380240007000401C
:101780002DE9F8430446002600250027A846A9466F
:10179000207800F0010088B100BFFE48006820F406
:1017A0000000FC49086008460068616B0843F9497D
:1017B000086000BF606B08B94FF00108206800F4B2
:1017C0000020B0F5002F13D1F2488430006820F4D7
:1017D0004010E16B0843EF4984310860E06BB0F5DD
:1017E000801F01D14FF00108E06B08B94FF00109EB
:1017F000206800F48010B0F5801F13D1E5488430D4
:10180000006820F44000216C0843E24984310860FC
:10181000206CB0F5800F01D14FF00108206C08B9A1
:101820004FF00109206800F08070B0F1807F01D195
:101830004FF00108207800F02000202870D100BF70
:10184000D4483830006840F08050D24938310860C0
:101850000846006800F08050009000BF00BFCE48EE
:10186000006840F48070CC490860FFF721FD06460F
:1018700007E0FFF71DFD801B642802D90320BDE8A7
:10188000F883C548006800F480700028F1D0C14892
:101890006830006800F4407585B3208E00F4407015
:1018A000A8422BD0BB486830006820F44075B94886
:1018B0006830006840F48030B649683108600846F6
:1018C000006820F48030086008460560006800F079
:1018D000010098B1FFF7ECFC064608E0FFF7E8FCD2
:1018E000801B41F28831884201D90320C7E7A9480B
:1018F00068300068C0F340000028EFD000BF208EA1
:1019000000F44070B0F5407F0BD1A248006820F48D
:10191000F810A24A216B114008439E49086006E076
:1019200010E09C48006820F4F8109A490860994833
:1019300068300068218EC1F30B0108439549683176
:10194000086000BF207800F01000102810D100BF00
:1019500090488430006820F080708E49843108609F
:1019600008460068A16B08438A498431086000BFBB
:10197000208800F48040B0F5804F09D18548883038
:10198000006820F44030616E084382498831086065
:10199000208800F40040B0F5004F09D17D48883020
:1019A000006820F44020A16E08437A49883108601D
:1019B000206800F48030B0F5803F09D17548883048
:1019C000006820F44010E16E0843724988310860D5
:1019D000206800F40030B0F5003F09D16D48883030
:1019E000006820F44000216F08436A49883108608C
:1019F000207800F04000402809D16648883000680F
:101A000020F00300616C0843624988310860207847
:101A100000F08000802809D15E488830006820F0FE
:101A20000C00A16C08435B4988310860208800F4F1
:101A30008070B0F5807F09D156488830006820F06A
:101A40003000E16C0843534988310860208800F475
:101A50000070B0F5007F09D14E488830006820F052
:101A6000C000216D08434B4988310860208800F48C
:101A70008060B0F5806F09D146488830006820F456
:101A80004070616D0843434988310860208800F444
:101A90000060B0F5006F09D13E488830006820F43E
:101AA0004060A16D08433B4988310860208800F4FC
:101AB0008050B0F5805F09D136488830006820F446
:101AC0004050E16D0843334988310860208800F4B4
:101AD0000050B0F5005F09D12E488830006820F42E
:101AE0004040216E08432B4988310860206800F48B
:101AF0008000B0F5800F09D126488830006820F0BA
:101B00008060A16F0843234988310860206800F491
:101B10000010B0F5001F0FD11E488830006820F07B
:101B20000060E16F08431B4988310860E06FB0F145
:101B3000006F01D14FF00109207800F0080008285B
:101B400001D14FF00109206800F48020B0F5802F0A
:101B500009D110488830006820F04070616F084358
:101B60000C4988310860206800F40000B0F5000FCF
:101B70000AD108488830006820F08050D4F88010DE
:101B80000843044988310860B8F1010F0BD0206880
:101B900006E000000838024000700040FFFCFF0F24
:101BA000B0F1007F7DD1AD48006820F08060AB4986
:101BB0000860FFF77DFB064606E0FFF779FB801B18
:101BC000642801D903205AE6A4480068C0F3C06025
:101BD0000028F2D1207800F00100B8B1606BA8B9FC
:101BE0009E4884300068C0F301459C4884300068FA
:101BF000C0F303676068800140EA054040EA07617E
:101C0000207A41EA0070954984310860206800F428
:101C10000020B0F5002F03D1E06BB0F5801F09D094
:101C2000206800F48010B0F5801F24D1206CB0F53E
:101C3000800F20D1894884300068C0F3014587486F
:101C400084300068C0F302776068800140EA054193
:101C5000207B41EA006040EA0770804984310860D7
:101C60007E488C30006820F01F00616A491E0843DE
:101C70007A498C310860206800F08070B0F1807F74
:101C800017D1764884300068C0F303657348843008
:101C90000068C0F3027760688101208A41EA004051
:101CA00000E031E040EA056040EA07706B498431AA
:101CB0000860206800F00070B0F1007F0DD160680E
:101CC0008101208A41EA0041207B41EA0061207ABB
:101CD00041EA00706149843108606048006840F062
:101CE00080605E490860FFF7E3FA064606E0FFF70A
:101CF000DFFA801B642801D90320C0E5574800683B
:101D0000C0F3C0600028F2D0B9F1010F7ED1534872
:101D1000006820F0805051490860FFF7C9FA064674
:101D200006E0FFF7C5FA801B642801D90320A6E569
:101D30004A480068C0F340700028F2D1206800F4DF
:101D40000020B0F5002F01D1E06B38B1206800F41D
:101D50008010B0F5801F22D1206C00BB3F48883036
:101D60000068C0F301453D4888300068C0F3027741
:101D70006069800140EA0541207E41EA006040EA56
:101D80000770364988310860081D006820F4F85152
:101D9000A06A401E41EA002030498C31086020686A
:101DA00000F40010B0F5001F19D1E06FB0F1006F22
:101DB00015D12A4888300068C0F303652748883069
:101DC0000068C0F3027760698101208C41EA00401D
:101DD00040EA056040EA07702049883108602078B1
:101DE00000F00800082820D11C4888300068C0F3A3
:101DF00003651A4888300068C0F3014760698001B4
:101E000040EA074040EA0561207F00E024E041EA23
:101E10000070124988310860081D006820F44030C5
:101E2000E16A08430D498C3108600C48006840F0B5
:101E300080500A490860FFF73BFA064606E0FFF7C4
:101E400037FA801B642801D9032018E5034800688D
:101E5000C0F340700028F2D0002010E500380240A6
:101E600070B504460D4600260CB9012070BD5C48D3
:101E7000006800F00F00A8420ED25948006820F018
:101E80000F002843564908600846006800F00F001C
:101E9000A84201D00120E9E7207800F002000228E2
:101EA0001DD1207800F00400042805D14D480068B9
:101EB00040F4E0504B490860207800F00800082802
:101EC00005D14848006840F46040464908604548EC
:101ED000006820F0F000A1680843424908602078BB
:101EE00000F0010090B36068012807D13D48083830
:101EF0000068C0F34040A0B90120B7E7606802283D
:101F000007D1384808380068C0F3406048B901205C
:101F1000ACE7344808380068C0F3400008B9012035
:101F2000A4E73048006820F00300616808432D49A9
:101F30000860FFF7BDF9064609E0FFF7B9F9801B15
:101F400041F28831884202D903208FE707E0254813
:101F5000006800F00C006168B0EB810FEDD1204803
:101F6000006800F00F00A8420ED91D48006820F05C
:101F70000F0028431A4908600846006800F00F0067
:101F8000A84201D0012071E7207800F00400042865
:101F900007D11448006820F4E050E1680843114973
:101FA0000860207800F00800082808D10D48006873
:101FB00020F46040216940EAC1000A49086000F04D
:101FC0004FF808490968C1F30311074A515CC8403A
:101FD000064908600020FFF79DFA002046E7000050
:101FE000003C024008380240F86100080000002070
:101FF0000F2202600D4A126802F0030242600B4A8F
:10200000126802F0F0028260084A126802F4E0529C
:10201000C260064A126802F46042D2080261044AB1
:10202000126802F00F020A60704700000838024090
:10203000003C02400148006870470000000000209A
:1020400000B5FFF7F7FF04490968C1F34231034ABD
:10205000515CC84000BD000008380240086200081A
:102060002DE9F047002400250026A14625480068F8
:1020700000F00C0020B1042805D008283AD105E072
:10208000DFF8849039E0DFF8849036E01D48001FC7
:10209000006800F03F041B48001F006800F4800047
:1020A00078B11A481749091F0968C1F38811A0FBC4
:1020B00001700146224600233846FEF7FFF8054628
:1020C0000EE011480F49091F0968C1F38811A0FBF0
:1020D00001700146224600233846FEF7EFF8054618
:1020E0000848001F0068C0F30140401C4600B5FBD3
:1020F000F6F902E0DFF8109000BF00BF4846BDE8E7
:10210000F0870000083802400024F40000127A0032
:10211000F8B5044600260CB90120F8BD207800F07F
:102120000100002871D0F848006800F00C00042875
:102130000DD0F548006800F00C00082813D1F248D3
:10214000001F006800F48000B0F5800F0BD1EE484E
:1021500008380068C0F34040002869D06068002853
:1021600066D10120D9E700BF6068B0F5803F08D193
:10217000E5480838006840F48030E34908390860D1
:102180002EE0606868B9E0480838006820F48030C4
:10219000DD49083908600846006820F4802008609E
:1021A0001EE06068B0F5A02F0DD1D7480838006850
:1021B00040F48020D449083908600846006840F49B
:1021C000803008600CE0D0480838006820F4803087
:1021D000CD49083908600846006820F4802008606E
:1021E00000BF606890B1FFF763F8054606E0FFF7AF
:1021F0005FF8401B642801D903208EE7C2480838E5
:102200000068C0F340400028F1D011E0FFF750F81B
:10221000054606E0FFF74CF8401B642801D903206F
:102220007BE7B94808380068C0F340400028F1D186
:10223000207800F00200022869D1B348006800F05D
:102240000C0058B1B048006800F00C0008281CD100
:10225000AD48001F006800F48000B0B9AA480838F3
:102260000068C0F3400020B1E068012801D00120DF
:1022700053E7A5480838006820F0F800216940EAD3
:10228000C100A1490839086041E0E06828B39E48D0
:102290000838006840F001009B4908390860FFF7E2
:1022A00007F8054606E0FFF703F8401B022801D9AE
:1022B000032032E7944808380068C0F34000002843
:1022C000F1D091480838006820F0F800216940EA10
:1022D000C1008D490839086019E08B48083800684A
:1022E00020F00100884908390860FEF7E1FF054643
:1022F00006E0FEF7DDFF401B022801D903200CE7B2
:10230000814808380068C0F340000028F1D12078E7
:1023100000F00800082836D16069D0B17A486C30E6
:10232000006840F0010078496C310860FEF7C0FF9A
:10233000054606E0FEF7BCFF401B022801D903203A
:10234000EBE671486C300068C0F340000028F1D023
:1023500019E06D486C30006820F001006A496C316A
:102360000860FEF7A5FF054606E0FEF7A1FF401B4B
:10237000022801D90320D0E663486C300068C0F31E
:1023800040000028F1D1207800F00400042874D126
:102390005D483830006800F0805080B900BF5A486E
:1023A0003830006840F0805057493831086008469E
:1023B000006800F08050009000BF00BF0126534825
:1023C000006800F48070B0B95048006840F4807034
:1023D0004E490860FEF76CFF054606E0FEF768FF11
:1023E000401B642801D9032097E64848006800F4A0
:1023F00080700028F2D000BFA068012808D14248B0
:102400006830006840F001003F49683108602DE005
:10241000A06868B93C486830006820F001003A497B
:10242000683108600846006820F0040008601DE07C
:10243000A06805280DD134486830006840F00400D9
:102440003149683108600846006840F001000860C2
:102450000CE02D486830006820F001002A496831FE
:1024600008600846006820F00400086000BFA0680B
:10247000A8B1FEF71DFF054609E02EE0FEF718FFA4
:10248000401B41F28831884201D9032045E61E48AD
:1024900068300068C0F340000028EFD013E0FEF77A
:1024A00007FF054608E0FEF703FF401B41F28831B5
:1024B000884201D9032030E6134868300068C0F331
:1024C00040000028EFD1012E07D10F4838300068B6
:1024D00020F080500C4938310860A069E8B30A4800
:1024E000006800F00C00082866D0A06902284BD1D3
:1024F00005480838006820F08070034908390860F2
:10250000FEF7D6FE05460AE008380240007000409B
:10251000FEF7CEFE401B022801D90320FDE5284826
:102520000068C0F340600028F2D1E06940F000503C
:10253000216A0843616A40EA81110122A06AC2EB64
:10254000500041EA00412C20005D41EA00601C4936
:10255000091D0860081F006800E02FE040F080704F
:10256000091F0860FEF7A4FE054606E0FEF7A0FE80
:10257000401B022801D90320CFE511480068C0F3B1
:1025800040600028F2D019E00D48006820F080700B
:102590000B490860FEF78CFE054606E0FEF788FE54
:1025A000401B022801D90320B7E505480068C0F3A5
:1025B00040600028F2D101E00120AEE50020ACE54A
:1025C00000380240042808D14FF0E021096941F0A9
:1025D00004014FF0E022116107E04FF0E0210969AA
:1025E00021F004014FF0E0221161704770B50446FC
:1025F0002546681EB0F1807F01D301200FE0681EE0
:102600004FF0E02148610F214FF0FF3001F088F9D1
:1026100000204FF0E021886107200861002070BD94
:102620007047704710B504460CB9012010BD94F8EE
:102630003D0028B9002084F83C00204600F00CF84A
:10264000022084F83D00211D206801F08FFA01204E
:1026500084F83D000020E9E7704701460868C0683B
:1026600040F001000A68D0600868006840F001008E
:102670000A68106000207047704710B50446206853
:102680000069C0F34000D8B12068C068C0F34000C2
:10269000B0B16FF002002168086101202077206846
:1026A000806900F0030018B12046FFF7E5FF05E060
:1026B000204600F0BEF8204600F0BCF8002020774D
:1026C00020680069C0F38000D8B12068C068C0F3FA
:1026D0008000B0B16FF0040021680861022020770B
:1026E0002068806900F4407018B12046FFF7C4FFED
:1026F00005E0204600F09DF8204600F09BF8002001
:10270000207720680069C0F3C000D8B12068C06895
:10271000C0F3C000B0B16FF0080021680861042068
:1027200020772068C06900F0030018B12046FFF749
:10273000A3FF05E0204600F07CF8204600F07AF880
:102740000020207720680069C0F30010D8B120680D
:10275000C068C0F30010B0B16FF0100021680861CC
:10276000082020772068C06900F4407018B1204626
:10277000FFF782FF05E0204600F05BF8204600F0FE
:1027800059F8002020772068006900F0010058B156
:102790002068C06800F0010030B16FF001002168CE
:1027A0000861204600F048F820680069C0F3C010B6
:1027B00058B12068C068C0F3C01030B16FF080001D
:1027C000216808612046FFF72BFF20680069C0F3ED
:1027D000002058B12068C068C0F3C01030B16FF05D
:1027E0008000216808612046FFF71AFF2068006911
:1027F000C0F3801058B12068C068C0F3801030B1B9
:102800006FF0400021680861204600F021F8206840
:102810000069C0F3401058B12068C068C0F3401090
:1028200030B16FF02000216808612046FFF7F9FE03
:1028300010BD70477047000010B50446034920687A
:10284000884201D1FEF74EFE10BD0000000001409D
:1028500070472DE9F04705468846D5F800904E466A
:10286000444606F5A06000EB4410806800F00400C8
:10287000042812D1042106F5A06000EB4410816009
:1028800006F5A06000EB4410C06840F0020106F5B8
:10289000A06000EB4410C1606DE006F5A06000EBA5
:1028A0004410806800F02000202806D1202106F581
:1028B000A06000EB441081605DE006F5A06000EBD5
:1028C0004410806800F00800082825D106F5A060B3
:1028D00000EB4410C06840F0020106F5A06000EB78
:1028E0004410C160052104EB840205F1380000EBBF
:1028F000C20080F82510102106F5A06000EB4410FE
:102900008160082106F5A06000EB44108160E1B20F
:10291000286801F0C2FA2EE006F5A06000EB441032
:10292000806800F48060B0F5806F24D106F5A06067
:1029300000EB4410C06840F0020106F5A06000EB17
:102940004410C160E1B2286801F0A7FA102106F531
:10295000A06000EB44108160082104EB840205F1C3
:10296000380000EBC20080F82510C90106F5A06010
:1029700000EB4410816006F5A06000EB4410806815
:1029800000F40070B0F5007F17D106F5A06000EBF1
:102990004410C06840F0020106F5A06000EB44104E
:1029A000C160E1B2286801F078FA4FF4007106F5D1
:1029B000A06000EB4410816001E206F5A06000EB2E
:1029C0004410806800F0010000287ED02869A8B17A
:1029D00004EB840105F1380000EBC100016906F544
:1029E000A06000EB44100069C0F31200091A04EB68
:1029F000840205F1380000EBC2004161012104EBC3
:102A0000840205F1380000EBC20080F82510002197
:102A100004EB840205F1380000EBC20001620121E1
:102A200006F5A06000EB4410816004EB840105F121
:102A3000380000EBC100C07940B104EB840105F11E
:102A4000380000EBC100C079022816D106F5A0605D
:102A500000EB4410C06840F0020106F5A06000EBF6
:102A60004410C160E1B2286801F017FA102106F5A0
:102A7000A06000EB441081602BE004EB840105F1C1
:102A8000380000EBC100C079032822D106F5A06010
:102A900000EB4410006840F0005106F5A06000EB28
:102AA00044100160012104EB840205F1380000EBC1
:102AB000C20080F8241004EB840305F1380000EB19
:102AC000C30090F82420E1B200E013E02846FEF7AE
:102AD00003FC04EB840105F1380000EBC100007E2B
:102AE00080F0010104EB840205F1380000EBC20024
:102AF000017664E106F5A06000EB4410806800F008
:102B00000200022871D106F5A06000EB4410C068F5
:102B100020F0020106F5A06000EB4410C16004EB58
:102B2000840105F1380000EBC10090F82500012870
:102B300009D1012104EB840205F1380000EBC20049
:102B400080F824108BE004EB840105F1380000EBE1
:102B5000C10090F82500052809D1052104EB840265
:102B600005F1380000EBC20080F8241077E004EB98
:102B7000840105F1380000EBC10090F8250006281B
:102B800009D004EB840105F1380000EBC10090F896
:102B90002500082842D104EB840105F1380000EB40
:102BA000C100006A401C04EB840205F1380101EB0E
:102BB000C201086204EB840105F1380000EBC1009A
:102BC000006A032812D9002104EB840205F13800C1
:102BD00000EBC2000162042104EB840205F138001D
:102BE00000EBC20080F8241009E04BE0022104EB66
:102BF000840205F1380000EBC20080F8241006F5CD
:102C0000A06000EB4410076827F0804747F00047BA
:102C100006F5A06000EB4410076020E004EB84019F
:102C200005F1380000EBC10090F82500032816D10B
:102C3000022104EB840205F1380000EBC20080F8A9
:102C4000241006F5A06000EB4410076827F08047C9
:102C500047F0004706F5A06000EB44100760022132
:102C600006F5A06000EB4410816004EB840305F1DD
:102C7000380000EBC30090F82420E1B22846FEF7AC
:102C80002BFB9CE006F5A06000EB4410806800F090
:102C9000800080282ED106F5A06000EB4410C068AB
:102CA00040F0020106F5A06000EB4410C16004EBA7
:102CB000840105F1380000EBC100006A401C04EB00
:102CC000840205F1380101EBC2010862062104EB20
:102CD000840205F1380000EBC20080F82510E1B253
:102CE000286801F0DAF8802106F5A06000EB4410B6
:102CF000816064E006F5A06000EB4410806800F09D
:102D0000100010285BD104EB840105F1380000EBC2
:102D1000C100C079032818D1002104EB840205F119
:102D2000380000EBC200016206F5A06000EB441021
:102D3000C06840F0020106F5A06000EB4410C160DD
:102D4000E1B2286801F0A9F833E004EB840105F151
:102D5000380000EBC100C07940B104EB840105F1FB
:102D6000380000EBC100C079022822D1002104EB19
:102D7000840205F1380000EBC20001622869C0B985
:102D8000032104EB840205F1380000EBC20080F857
:102D9000251006F5A06000EB4410C06840F0020169
:102DA00006F5A06000EB4410C160E1B2286801F0B4
:102DB00074F8102106F5A06000EB44108160BDE8B6
:102DC000F0872DE9F04705460F46D5F800904E46AE
:102DD0003C4606F5A06000EB4410806800F004005B
:102DE000042812D1042106F5A06000EB4410816094
:102DF00006F5A06000EB4410C06840F0020106F543
:102E0000A06000EB4410C16075E206F5A06000EB25
:102E10004410806800F02000202830D1202106F5E1
:102E2000A06000EB4410816004EB840105F13800E0
:102E300000EBC10040790128E6D1002104EB8402B7
:102E400005F1380000EBC2004171022104EB84025D
:102E500005F1380000EBC20080F8241006F5A060F0
:102E600000EB4410C06840F0020106F5A06000EBE2
:102E70004410C160E1B2286801F00FF83BE206F5AA
:102E8000A06000EB4410806800F0400040282FD183
:102E9000042104EB840205F1380000EBC20080F845
:102EA0002510012104EB840205F1380000EBC2007B
:102EB0004171002104EB840205F1380000EBC200EF
:102EC000016206F5A06000EB4410C06840F002010A
:102ED00006F5A06000EB4410C160E1B2286800F084
:102EE000DCFF402106F5A06000EB4410816002E2A7
:102EF00006F5A06000EB4410806800F40070B0F5A7
:102F0000007F17D106F5A06000EB4410C06840F0C8
:102F1000020106F5A06000EB4410C160E1B2286830
:102F200000F0BBFF4FF4007106F5A06000EB441009
:102F30008160E0E106F5A06000EB4410806800F0DD
:102F4000010030B3002104EB840205F1380000EBEE
:102F5000C200016206F5A06000EB4410C06840F0BA
:102F6000020106F5A06000EB4410C160E1B22868E0
:102F700000F093FF012106F5A06000EB4410816092
:102F800004EB840205F1380000EBC20080F8251044
:102F9000B1E106F5A06000EB4410806800F0080085
:102FA00008281FD1082106F5A06000EB44108160BD
:102FB00006F5A06000EB4410C06840F0020106F581
:102FC000A06000EB4410C160E1B2286800F065FF2A
:102FD000052104EB840205F1380000EBC20080F803
:102FE000251088E106F5A06000EB4410806800F031
:102FF000100010283FD1002104EB840205F13800B5
:1030000000EBC2000162032104EB840205F13800E9
:1030100000EBC20080F8251004EB840105F13800B4
:1030200000EBC100407978B904EB840105F1380068
:1030300000EBC100007938B9012104EB840205F1ED
:10304000380000EBC200417106F5A06000EB4410AF
:10305000C06840F0020106F5A06000EB4410C160BA
:10306000E1B2286800F019FF102106F5A06000EB1E
:10307000441081603FE106F5A06000EB44108068D9
:1030800000F0800080281FD106F5A06000EB4410FE
:10309000C06840F0020106F5A06000EB4410C1607A
:1030A000E1B2286800F0F9FE062104EB840205F184
:1030B000380000EBC20080F82510802106F5A060E2
:1030C00000EB4410816016E106F5A06000EB4410AF
:1030D000806800F48060B0F5806F25D106F5A060AF
:1030E00000EB4410C06840F0020106F5A06000EB60
:1030F0004410C160E1B2286800F0CFFE102106F54F
:10310000A06000EB44108160890106F5A06000EB2F
:1031100044108160082104EB840205F1380000EBC3
:10312000C20080F82510E6E006F5A06000EB441030
:10313000806800F0020002289CD106F5A06000EB38
:103140004410C06820F0020106F5A06000EB4410B6
:10315000C16004EB840105F1380000EBC10090F878
:103160002500012822D1012104EB840205F1380059
:1031700000EBC20080F8241004EB840105F1380054
:1031800000EBC100C07902280FD104EB840105F1E6
:10319000380000EBC100407E80F0010104EB8402A6
:1031A00005F1380000EBC200417692E004EB8401A7
:1031B00005F1380000EBC10090F82500032809D183
:1031C000022104EB840205F1380000EBC20080F814
:1031D00024107EE004EB840105F1380000EBC1000F
:1031E00090F82500042809D1022104EB840205F19E
:1031F000380000EBC20080F824106AE004EB840180
:1032000005F1380000EBC10090F82500052809D130
:10321000052104EB840205F1380000EBC20080F8C0
:10322000241056E004EB840105F1380000EBC100E6
:1032300090F82500062809D004EB840105F1380038
:1032400000EBC10090F82500082842D104EB84016E
:1032500005F1380000EBC100006A401C04EB840259
:1032600005F1380101EBC201086204EB840105F1AC
:10327000380000EBC100006A032811D9002104EBDB
:10328000840205F1380000EBC2000162042104EB66
:10329000840205F1380000EBC20080F8241008E039
:1032A000022104EB840205F1380000EBC20080F833
:1032B000241006F5A06000EB4410D0F8008028F040
:1032C000804848F0004806F5A06000EB4410C0F8C4
:1032D0000080022106F5A06000EB4410816004EB41
:1032E000840305F1380000EBC30090F82420E1B21C
:1032F0002846FDF7F1FFBDE8F0877CB50446266857
:103300003546D5F840040190D5F840040090009867
:1033100020F02E000090019800F00200022810D149
:10332000019800F0010040B12068806920F0005051
:10333000216888612046FDF7C1FF009840F0020037
:103340000090019800F00800082839D1009840F05A
:1033500008000090019800F00400042821D1A06921
:1033600002280FD1019800F4C020B0F5802F04D1BD
:103370000221206800F053FE0CE00121206800F0DB
:103380004EFE07E0E068032804D14EF6602140F2CB
:10339000044041512046FEF765F82046FDF78EFFB8
:1033A0000EE02046FEF757F8D5F8400420F02E0036
:1033B000C5F840042068806940F0005021688861A9
:1033C000019800F02000202803D1009840F0200050
:1033D00000900098C5F840047CBD00002DE9F05F26
:1033E0000546D5F800A057462868D0F8208008F098
:1033F0000F04C8F3434BC8F30A16BBF1020F09D000
:10340000BBF1030F66D0BBF1050F61D0BBF1070F15
:103410005FD160E0002E5AD004EB840105F1380042
:1034200000EBC100C068E8B3B2B204EB840C05F154
:10343000380303EBCC03D968286800F017FE04EBCF
:10344000840105F1380000EBC100C068811904EB6C
:10345000840205F1380000EBC200C16004EB840176
:1034600005F1380000EBC1004069811904EB8402CA
:1034700005F1380000EBC200416107F5A06000EBE8
:10348000441000691649084060B107F5A06000EBE0
:103490004410D0F8009029F0804949F0004907F520
:1034A000A06000E013E000EB4410C0F8009004EBD3
:1034B000840105F1380000EBC100007E80F00101BD
:1034C00004EB840205F1380000EBC200017603E052
:1034D00002E000BF00BF00BF00BFBDE8F09F0000DA
:1034E0000000F81F00BFFEE710B50449084601F0D0
:1034F000D7F9024801F093F910BD000050010020F7
:103500001FB52B482B4908604FF4803048600021DC
:103510002848816001210161816100210162C1624D
:10352000254981620021C1600521C161012101633A
:103530004161FDF7EDF918B1582120A000F003FE1C
:103540000020009001200190002002906946194857
:10355000FDF700F918B1622118A000F0F4FD012078
:1035600000900220019069461248FDF7F3F818B167
:103570006B2112A000F0E7FD0220009003200190D3
:1035800069460C48FDF7E6F818B174210BA000F06D
:10359000DAFD032000900420019069460548FDF7FC
:1035A000D9F818B17D2105A000F0CDFD1FBD0000A8
:1035B00000200140A80000200100000F2E2E2F53F4
:1035C00072632F6164632E630000000008B500BFC2
:1035D0000A48006840F4800008490860084600680E
:1035E00000F48000009000BF00BF002205213820B9
:1035F000FEF72BF83820FEF71BF808BD30380240E4
:1036000000B585B0142206496846FCF788FE002103
:10361000684601F04BFB0349086005B000BD00009F
:10362000186200081400002000B587B000BF9D4854
:10363000006840F010009B4908600846006800F0F0
:103640001000019000BF00BF00BF0846006840F4B2
:10365000807008600846006800F48070019000BF28
:1036600000BF00BF0846006840F00400086008463C
:10367000006800F00400019000BF00BF00BF0846D2
:10368000006840F0200008600846006800F0200054
:10369000019000BF00BF00BF0846006840F08000F6
:1036A00008600846006800F08000019000BF00BF7D
:1036B00000BF0846006840F0010008600846006846
:1036C00000F00100019000BF00BF00BF0846006885
:1036D00040F0020008600846006800F00200019017
:1036E00000BF00BF00BF0846006840F0400008600F
:1036F0000846006800F04000019000BF00BF00BF16
:103700000846006840F0080008600846006800F0BD
:103710000800019000BF00BF002204216248FDF7AD
:10372000C1FD00224FF480716048FDF7BBFD00220F
:1037300010215F48FDF7B6FD0022C0215D48FDF76E
:10374000B1FD042002900120039000200490059018
:1037500002A95548FDF78EFC4FF6FB70029003203E
:1037600003900020049002A94F48FDF783FC4FF41A
:10377000807002900120039000200490059002A91F
:103780004A48FDF777FC4FF6FF7002900320039044
:103790000020049002A94848FDF76CFC40F2FF604D
:1037A0000290032003900020049002A93F48FDF7F7
:1037B00061FC4FF40060029000200390012004900F
:1037C00002A93A48FDF756FC4FF6FF70029003201D
:1037D00003900020049002A93848FDF74BFC4FF6F7
:1037E000EC700290032003900020049002A930485E
:1037F000FDF740FC1020029001200390002004906F
:10380000059002A92A48FDF735FC48F2E0500290E5
:10381000032003900020049002A92948FDF72AFC08
:103820004FF63F700290032003900020049002A9FD
:103830002048FDF71FFC4FF6F37002900320039021
:103840000020049002A91F48FDF714FC4FF6CF702A
:103850000290032003900020049002A91A48FDF76B
:1038600009FC0C200290002003900120049002A982
:103870001448FDF7FFFB3020029000200390012048
:10388000049002A91048FDF7F5FBC020029001202A
:10389000039000200490059002A90648FDF7EAFB7A
:1038A00007B000BD30380240001002400020024046
:1038B000001C0240000402400008024000140240C4
:1038C0000000024000180240000C024000BFFEE76A
:1038D00008B501F0A7F9009001F076F94FF4FA600D
:1038E00001F07DF9084800F065FF00F0C1FDFFF729
:1038F000FBFD00BF01F012F800F0BAFD0A21684696
:1039000001F07BF9F6E7000050010020704700004D
:1039100002480068C0F30220704700000CED00E090
:1039200010B5002807DA0A07140E054A00F00F0345
:103930001B1FD45403E00A07130E024A135410BD90
:1039400018ED00E000E400E010B50248FDF7CDFC02
:1039500010BD00009C01002010B50023234C236003
:1039600000BF00BF00BFBFF34F8F00BF00BF00BF4D
:10397000231F1868C0F34E3100BFC0F3C90200BF57
:1039800043F6E07303EA41134FF0404404EA8274C3
:103990002343174C236000BF00BF131EA2F1010296
:1039A000EED10B1EA1F10101E7D100BF00BF00BFA6
:1039B000BFF34F8F00BF00BF00BF0C4B703B1B68B5
:1039C00043F48033094C703C236000BF00BF00BF4C
:1039D000BFF34F8F00BF00BF00BF00BF00BF00BFDD
:1039E000BFF36F8F00BF00BF00BF10BD84ED00E0CC
:1039F00060EF00E010B501F051F910BD10B5B4B0A2
:103A000000BF3748006840F08050354908600846DC
:103A1000006800F08050019000BF00BF00BF314837
:103A2000006840F440402F4908600846006800F4F0
:103A30004040019000BF00BF012028900004299061
:103A400002202E90410528A8C16104210162C021F5
:103A50004162022181620821C162FEF759FB18B15F
:103A6000AF2121A000F06FFBFDF742FE18B1B62197
:103A70001DA000F068FB0F2023900220249000205E
:103A800025904FF4A05026904FF4805027900621A7
:103A900023A8FEF7E5F918B1C42113A000F053FBE9
:103AA0004FF4001002900020219002A8FDF768FE5C
:103AB00018B1CB210CA000F046FBFEF7BBFA4FF487
:103AC0007A71B0FBF1F42046FEF790FD0420FEF77A
:103AD00079FD00220F21501EFDF7B7FD34B010BD57
:103AE00040380240007000402E2E2F5372632F6D1D
:103AF00061696E2E630000001448006840F4700095
:103B0000124908601248006840F00100104908603E
:103B100000200F49083108600D4800680D49084031
:103B20000B4908600C48091D0860081F006820F454
:103B30008020091F0860002005490C3108604FF003
:103B400000600249803908607047000088ED00E09D
:103B500000380240FFFFF6FE1030002410B5024886
:103B6000FEF78BFD10BD00005C04002010B50022A4
:103B700002682F4B98420ED0B0F1804F0BD02D4BE6
:103B8000984208D02C4B984205D02C4B984202D03A
:103B90002B4B984201D1012300E000231BB122F0FE
:103BA00070024B681A43224B984220D0B0F1804FEC
:103BB0001DD0204B98421AD01F4B984217D01F4B54
:103BC000984214D01E4B984211D01E4B98420ED0F2
:103BD0001D4B98420BD01D4B984208D01C4B98426D
:103BE00005D01C4B984202D01B4B984201D10123B7
:103BF00000E000231BB122F44072CB681A4322F08C
:103C000080034C6943EA040202608B68C3620B685C
:103C10008362074B984202D0094B984201D101239D
:103C200000E000230BB10B6903630123436110BD66
:103C3000000001400004004000080040000C00406B
:103C400000040140004001400044014000480140A0
:103C500000180040001C00400020004002460B29D4
:103C600009D202F5607030F82100C0F30E0302F5AE
:103C7000607040F821300020704710B5044620786D
:103C80000B2807D1D4F8780320B1D4F878038169E0
:103C90002046884710BD10B50446207858B9012148
:103CA00084F81E13D4F8C80358B104212046D4F870
:103CB000C823904705E094F81F03012801D1022092
:103CC000207000220121D4F8CC0300F0B5FF0020C1
:103CD00010BD10B50446204600F05BF8217920465F
:103CE000FFF7BCFF61792046FFF7B8FF002184F899
:103CF0001E13D4F8C80320B105212046D4F8C823E8
:103D00009047204600F027F8032020700022012170
:103D1000D4F8CC0300F090FF002010BD10B504468D
:103D2000D4F8BC03401CC4F8BC032046FFF7A5FF31
:103D300010BD10B5044600220221D4F8CC0300F0D7
:103D40007BFF002010BD002280F81F237047012256
:103D500080F81F23704770B5044600250026D4F86C
:103D6000C403FDF78DFB054635B1012D06D0022DAC
:103D700006D0032D08D105E0002607E0022605E065
:103D8000012603E0022601E0022600BF00BF304604
:103D900070BD70B5044600250026D4F8C403FDF7B5
:103DA0008AFB054635B1012D06D0022D06D0032D24
:103DB00008D105E0002607E0022605E0012603E021
:103DC000022601E0022600BF00BF304670BD01465A
:103DD000886820F0010088600020704708B502461E
:103DE000134600200090D3F840040090009820F083
:103DF0002E000090009800F4805030B9012904D1C1
:103E0000009840F48050C3F84004009800F48050BB
:103E1000B0F5805F05D121B9009820F48050C3F837
:103E20004004002008BD0146886840F00100886019
:103E300000207047014600221020086100BF501C7E
:103E40000246064B984201D903207047086900F0EA
:103E500010001028F3D00020F7E70000400D030009
:103E600010B502460023202040EA8110106100BFF7
:103E7000581C0346054CA04201D9032010BD10690F
:103E800000F020002028F3D00020F7E7400D0300C9
:103E90000146486900F001007047F0B503460C4642
:103EA0001A462146002502F5A06000EB411000688B
:103EB000C0F381460EB1022E53D102F5A06000EB93
:103EC0004110006840F0804702F5A06000EB41100F
:103ED0000760D86A00F47F00A8BB02F5A06000EB81
:103EE0004110006820F0004702F5A06000EB41108F
:103EF000076002F5A06000EB4110006840F0004749
:103F000002F5A06000EB4110076002F5A06000EB35
:103F10004110006820F4004702F5A06000EB41105A
:103F2000076000BF681C0546B0F57A7F00D909E03C
:103F300002F5A06000EB4110006800F00040B0F115
:103F4000004FEFD062E0FFE702F5A06000EB411008
:103F5000006840F0004702F5A06000EB41100760E8
:103F600054E002F5A06000EB4110006840F080478B
:103F700002F5A06000EB411007604FF482608058AA
:103F800000F47F00A8BB02F5A06000EB41100068C0
:103F900020F0004702F5A06000EB4110076002F539
:103FA000A06000EB4110006840F0004702F5A060FF
:103FB00000EB4110076002F5A06000EB41100068C3
:103FC00020F4004702F5A06000EB4110076000BF3D
:103FD000681C0546B0F57A7F00D909E002F5A060BB
:103FE00000EB4110006800F00040B0F1004FEFD04E
:103FF0000CE0FFE702F5A06000EB4110006840F024
:10400000004702F5A06000EB411007600020F0BD02
:1040100001460A4640F21440805880B2704710B5FD
:1040200002460B461146D1F8000420F00300C1F807
:104030000004D1F8000403F003042043C1F8000495
:10404000012B05D14BF6803440F20440445006E089
:10405000022B04D141F2707440F20440445000201D
:1040600010BD014648698A6910407047F0B50346A3
:104070001E460846D71CBD08002405E04FF48057B3
:10408000BF590760001D641CAC42F7D3F0BD2DE999
:10409000F04107463E464FF000083846FFF797FECE
:1040A00010213846FFF7DCFE3846FFF7C3FE002438
:1040B00010E006F5A06000EB4410056845F080456F
:1040C00025F0004525F4004506F5A06000EB4410FE
:1040D0000560641C0F2CECD9002423E006F5A060D9
:1040E00000EB4410056845F0804545F0004525F497
:1040F000004506F5A06000EB4410056000BF08F124
:1041000001008046B0F57A7F00D909E006F5A0608D
:1041100000EB4410006800F00040B0F1004FEED01A
:1041200000BF641C0F2CD9D94FF0FF3140F214406E
:104130008151084678613846FFF775FE0020BDE8DA
:10414000F08100BFFEE700BFFEE702E008C8121FD3
:1041500008C1002AFAD170477047002001E001C170
:10416000121F002AFBD1704700BFEFF3058008B192
:10417000012070470020FCE72DE9F04704460F4678
:104180000026B14600254AE06069103050F825103D
:1041900004F1220030F81500461A301E01DB0146FA
:1041A00000E041420E46204850F8278004F11801F3
:1041B00031F91510B4F92020881A002801DB0146D6
:1041C00000E04142B1420EDDEAB20021204600F09B
:1041D00098F8012822D10021A27CA01C00EB8200CB
:1041E000415589461AE004F1180131F9151001EB27
:1041F0000800002801DB014600E04142B1420DDA2F
:10420000EAB20121204600F07CF8012806D1012104
:10421000A27CA01C00EB8200415589466D1C032D39
:10422000B2DD4846BDE8F0872C6200082DE9FC4766
:1042300080460D469146CA46032D01DABDE8FC874B
:104240004746002418E0002609E00AFB04F007EBCB
:104250004000A91B30F811002DF81600761C032E23
:10426000F3D3684600F031F80AFB04F107EB410292
:10427000691E22F81100641C032CE4D900BFDDE79D
:104280002DE9F04104460D469C46092A01DABDE8B5
:10429000F0812746002014E00026A2F1090107E082
:1042A0000CFB00F807EB480838F811804644491C1D
:1042B0009142F5D94FF00A08B6FBF8F825F81080BE
:1042C000401C0328E8D900BFE1E730B501460022D1
:1042D00013E0531C0EE031F8120031F81350A842DD
:1042E00007DD31F8124031F8130021F8120021F8EF
:1042F00013405B1C032BEED3521C032AE9D34888DE
:1043000030BD30B50346012922D19C7C03F12A003F
:1043100000EBC40030F81200401C04B29D7C03F195
:104320002A0000EBC50020F812409C7C03F12A0013
:1043300000EBC40030F91200642809DD64249D7C80
:1043400003F12A0000EBC50020F81240012030BD27
:1043500011BB9C7C03F12A0000EBC40030F8120072
:10436000401E04B29D7C03F12A0000EBC50020F83A
:1043700012409C7C03F12A0000EBC40030F91200CB
:10438000012809DC01249D7C03F12A0000EBC50013
:1043900020F812400120DAE70020D8E700BF00BF74
:1043A00000BF00BF00BFBFF34F8F00BF00BF00BF03
:1043B00000BF00BF00BFBFF36F8F00BF00BF00BFD3
:1043C0000020154908601548006840F40030134982
:1043D000086000BF00BF00BFBFF34F8F00BF00BF2A
:1043E00000BF00BF00BF00BFBFF36F8F00BF00BFA3
:1043F00000BF00BFFFF7B0FAFDF780F8FFF7FEFA45
:10440000FFF712F9FFF7E2F8FFF77AF8FFF7F8F88D
:1044100000F003FC00BFFEE750EF00E014ED00E009
:1044200001460020842901D0CA1C1044704710B5F1
:1044300000F03AF910BD000010B500F0B1FBA0B1DA
:104440000A4890F8640008B9012000E000200749FC
:1044500081F86400084690F8640018B9032000F061
:1044600059FB02E0012000F055FB10BD5C17002055
:1044700010B50024FFF7E0FF00F012F910B900F0CA
:10448000E7F8E0B100F0A0FB00200D4909680870D2
:1044900000F036FB00BF00F0EBF8FFF7C8FF00F0BC
:1044A00011F828B1FF2400F0B9F9FFF71DF801E079
:1044B000601C84B2032CEEDB204600F067F910BDCF
:1044C0002C00002010B50122002021E0124951F8F3
:1044D000201040F6B833994200D900220E4951F815
:1044E0002010B1F57A7F00D200220B4B083B33F845
:1044F0001030094C103C34F81040191B002901DB26
:104500000B4600E04B42B3F51B7F00DD0022401C50
:104510000328DBDD104610BD6C17002010B5002409
:10452000174890F8640000BB1548006E44F25061D3
:10453000884207D300201249086600F073FB114936
:104540000860012410480068007801280ED100F0AE
:1045500069FB0C490968401A0949096E0844084971
:10456000086600F05FFB0749086006E00020044988
:10457000086600F057FB03490860204610BD0000A4
:104580005C170020380000203000002070B50026A5
:10459000002452E000254DE02A48006800EBC400EA
:1045A00030F91500192822DB2648006800EBC4000A
:1045B00030F915004B281ADC00F034FB224901EBDE
:1045C000041151F82510411A204800EB041050F84E
:1045D000250001441D4800EB041040F8251000F0B0
:1045E00021FB194901EB041141F825000CE00021E1
:1045F000164800EB041040F8251000F013FB124998
:1046000001EB041141F82500104800EB041050F8AC
:10461000250041F2707188420BD340210B48FBF713
:1046200097FE00F0FFFA084901EB041141F825005C
:1046300001266D1C032DAFDD641C032CAADD304662
:1046400070BD000034000020C41700207C1700203B
:1046500010B50024054890F8640028B9FFF796FFCC
:104660000446FFF75BFF0443204610BD5C170020A3
:1046700070B500F0D7FA054600240AE02146074845
:10468000FCF738F8204600F0BDF80A2000F0A7FA41
:10469000641CB4F5967FF1D370BD0000FC0D0020C2
:1046A00010B500F067FA10BD10B5364800218160E2
:1046B000C160016141618161C1614FF6FF720821F2
:1046C000FBF73FFE00205AE0032148E0C0EB001258
:1046D00002EB82022C4B03EBC20232F81120294B71
:1046E00033F810309A420BDAC0EB001202EB820270
:1046F000254B03EBC20232F81120224B23F8102085
:10470000C0EB001202EB82021F4B03EBC20232F835
:1047100011301C4A083232F8102093420CDDC0EBF5
:10472000001202EB8202184B03EBC20232F8113086
:10473000144A083222F81030C0EB001202EB820259
:10474000114B03EBC20232F811300E4A103252F80C
:10475000202013440B4A103242F82030491CB1F596
:10476000957FB3DD0749103151F820104FF4947252
:10477000B1FBF2F20349103141F82020401C03281C
:10478000A2DD10BD5C170020FC0D002010B5044612
:10479000FF2C03D1052000F0D5F905E000F09CF9CD
:1047A00040F6B83000F01BFA00F08CF900F09EF9EA
:1047B00010BD000010B5044668210D48FBF7C8FD88
:1047C0004FF416610B48FBF7C3FD0B480460601CF7
:1047D0000A4908600648606104F12A000849086037
:1047E00044F2506002490866002081F8640010BD60
:1047F0005C170020FC0D00202C0000203000002061
:104800003400002010B504464FF496722146024849
:10481000FFF70CFD10BD0000FC0D0020704730B507
:104820000022002117E04369083333F8113044694E
:1048300034F811401B1B1AB2131E01DB1C4600E0AA
:104840005C4222B2134602EBD374641000F11805E7
:1048500025F81140491C0329E5DD0C21018430BDF8
:1048600010B504480068817C02480068FFF784FCAA
:1048700010BD00002000002010B50446024800686A
:104880008474FFF7EDFF10BD2000002010B5044632
:1048900021460248FBF72EFF10BD00009C040020BB
:1048A00070B504460D4608480560084804600120BC
:1048B000054909680870002004490968487000F03B
:1048C00023F800F08BF970BD2400002020000020A8
:1048D00010B504464FF4967221460248FFF7A6FC35
:1048E00010BD00009C04002010B504464FF49673E0
:1048F00022460348016822310248FFF7C1FC10BD7F
:10490000200000209C04002010B5202102480068EF
:104910002A30FBF71DFD10BD2000002010B5164801
:104920000088FFF7B3FF14480088FFF7D1FF124853
:104930000088FFF7D9FF0020FFF79EFF0120FFF757
:104940009BFF0220FFF798FF0320FFF795FF00F081
:1049500015F800F02DF808480088401C064908802A
:1049600008460088B0F5967F02DA0846008800E025
:1049700000200149088010BD2800002000220020EE
:104980000EE0002109E0094B1B689B1C03EB800330
:104990005B5C012B00D10122491C0329F3DD401C83
:1049A0000328EEDD014800684270704720000020B7
:1049B00010B503480068801C00F022F810BD00000C
:1049C0002000002010B5002240210A48FCF76AFCB4
:1049D000002280210748FCF765FC002210210648D0
:1049E000FCF760FC00224FF480710448FCF75AFC8D
:1049F00010BD000000040240001C024000200240E4
:104A000070B50646002451E000254BE006EB85001A
:104A1000005D012822D134B1012C0AD0022C0ED025
:104A2000032C18D111E0012240212248FCF73AFC66
:104A300012E0012280211F48FCF734FC0CE0012227
:104A400010211D48FCF72EFC06E0012211021B4834
:104A5000FCF728FC00E000BF00BF25E034B1012CCA
:104A60000AD0022C0ED0032C19D111E000224021D3
:104A70001048FCF717FC13E0002280210D48FCF7DA
:104A800011FC0DE0002210210B48FCF70BFC07E0A5
:104A900000224FF480710948FCF704FC00E000BFDD
:104AA00000BF6D1C032DB1DD00BF641C032CABDD0A
:104AB00070BD000000040240001C024000200240C3
:104AC0007047000010B5002210210248FCF7EAFBF5
:104AD00010BD0000001C024010B501221021024848
:104AE000FCF7E0FB10BD0000001C024010B50022E6
:104AF00080210248FCF7D6FB10BD000000040240F4
:104B000010B5012280210248FCF7CCFB10BD00004B
:104B10000004024070B50446002507E04021084823
:104B2000FCF7BCFB6420FCF791FA6D1CB5EB440F5D
:104B3000F4DB002240210248FCF7B4FB70BD00000A
:104B40000004024070B50446002507E01021084823
:104B5000FCF7A4FB6420FCF779FA6D1CB5EB440F5D
:104B6000F4DB002210210248FCF79CFB70BD000022
:104B7000001C024010B54FF400610848FCF786FBAA
:104B800048B900BF4FF400610448FCF77FFB0028E0
:104B9000F8D0012010BD0020FCE7000000200240FA
:104BA00010B504210748FCF771FB40B900BF042190
:104BB0000448FCF76BFB0028F9D0012010BD002051
:104BC000FCE700000018024010B5FFF7FBFEFFF7FE
:104BD0008DFFFFF777FFFFF773FF10BD704770B5CC
:104BE00004460A20B4FBF0F50DB1294600E001218E
:104BF000084600F021FD002070BD70B505460C464A
:104C00000A20B4FBF0F60EB1304600E00120014668
:104C1000284600F041FD002070BD10B500F0EAFD0F
:104C2000002010BD10B5FFF79FFA10B101F0FAF89F
:104C300010BD01F0F1F8FBE777B581B006461446E8
:104C4000002000900A20B4FBF0F505B90125FFF71C
:104C50008BFAA8B100236A4602A9304600F0CEFFC5
:104C6000012802D0FF2004B070BD009890B14FF031
:104C7000805009490860BFF34F8FBFF36F8F09E081
:104C800000232A4602A9304600F0DCFE012801D0AC
:104C9000FF20E8E70020E6E704ED00E010B501F0B2
:104CA000ABF8012801D000F0B1FE10BDFEB50446FE
:104CB0000D46B4F90800FFF7B3FB064602A8CDE99C
:104CC0000060238A9AB22B46D4E9001001F064F800
:104CD000012801D00020FEBD0298FCE72DE9F0413B
:104CE00005460E461C4807681C480068001D00F079
:104CF0006FFB50B91948006890F82C1001208840CB
:104D000017490968814316480160681C38B936B1F3
:104D100012480168091D134800F098FB1AE07C193D
:104D20000E4800684460BC4207D20C480168091D67
:104D30000D48006800F070FB0CE008480168091D90
:104D40000A48006800F068FB09480068844201D204
:104D500007480460BDE8F081740000206000002076
:104D600078000020E090002068000020640000200F
:104D70009000002010B5044600F074FB2348006842
:104D8000401C224908602248006840B9204804605D
:104D90000846006801280DD100F06AF90AE01D48B4
:104DA000006838B91A480068C06AE16A884201D8C8
:104DB0001748046018480068401C1749086094F8B8
:104DC0002C100120884015490968084313490860E0
:104DD000E16A01EB8101124A02EB8100211D00F022
:104DE00035FB00F06DFB0B48006868B108480068AF
:104DF000C06AE16A884207D24FF0805009490860D2
:104E0000BFF34F8FBFF36F8F10BD00007000002005
:104E1000600000207C0000208C0000207800002032
:104E20000490002004ED00E070B523E000F02AFDBE
:104E30001348006808B9012000E00020054601F091
:104E400057F9BDB900F00EFB0D48C068C468201DBD
:104E500000F0BEFA0B480068401E0A4908600A4884
:104E60000068401E0849086000F02AFB204600F058
:104E70004BF800BF044800680028D7D170BD00007F
:104E8000CC900020700000206C0000202DE9F04143
:104E900004460F4615464FF00008A66B206C40B93B
:104EA000206860BB606801F06DF88046002060609B
:104EB00025E07DB93946226CA068FBF730FA216CF9
:104EC000A0680844A060D4E90110884217D3206884
:104ED000A06014E03946226CE068FBF720FA216CF0
:104EE000E068401AE0602168E068884203D2216CE3
:104EF0006068401AE060022D01D106B1761E701C78
:104F0000A0634046BDE8F08110B50446206B00F078
:104F1000F7FA204600F0F4FA10BD000030B54FF467
:104F2000F043174800F007042CB1C01D20F0070023
:104F3000134C041B1B1B0246124C22600024114D13
:104F40006C60D018083820F007000F4C2060002457
:104F50000D4D2D686C600C4D2D682C601146441A67
:104F60004C60094C24680C60084D4C682C60084D5E
:104F70004C682C604FF00044064D2C6030BD0000A2
:104F8000041800203C000020440000204C000020B9
:104F9000480000205000002000BFFFF745FF0648F2
:104FA00000680128F9D94FF0805004490860BFF328
:104FB0004F8FBFF36F8FF0E70490002004ED00E007
:104FC0002DE9FF5F81460F469246DDE90E6B109C8E
:104FD000AAF10100216B01EB800828F0070808F016
:104FE000070008B9012000E0002060B900BF502090
:104FF00072B680F31188BFF34F8FBFF36F8F62B625
:1050000000BF00BFFEE7002507E0795D04F1340032
:105010004155785D00B902E06D1C102DF5D300BF3D
:10502000002143200155072E00D30626E662666460
:105030000020A064201D00F0ECF904F1180000F03D
:10504000E8F92461C6F10700A06164620020E06411
:1050500084F8500049464046039A00F0A3F92060C6
:10506000BBF1000F01D0CBF80040BDE8FF9F00006E
:1050700010B5002407E004EB84010F4A02EB810025
:1050800000F0BAF9641C072CF5D30C4800F0B4F911
:105090000B4800F0B1F90B4800F0AEF90A4800F0F7
:1050A000ABF90A4800F0A8F9044809490860044827
:1050B0000849086010BD0000049000209090002076
:1050C000A4900020B8900020CC900020E090002018
:1050D000640000206800002010B50146164800E07A
:1050E000006803688B42FBD30246436813448B423B
:1050F00004D143684C682344436001460A464B6828
:1051000013440468A34211D10C4C03682468A342E1
:1051100008D04B680468646823444B6003681B68CC
:105120000B6005E0054B1B680B6001E003680B603A
:10513000884200D0016010BD3C00002044000020E7
:1051400070B5054600F08EF9A86BE96B884201D175
:10515000012400E0002400F0B3F9204670BD0000F7
:105160000A490968096809B9012100E0002121B153
:105170004FF0FF31064A116006E004490968C9682A
:10518000C868034A4168116070470000640000204D
:105190009000002010480068401C08B9012000E081
:1051A000002060B900BF502072B680F31188BFF3B1
:1051B0004F8FBFF36F8F62B600BF00BFFEE700BF27
:1051C000502072B680F31188BFF34F8FBFF36F8FFB
:1051D00062B600BF00BFFEE75400002070B5044671
:1051E00000F040F994F9455010E0606A08B90120D8
:1051F00000E0002038B904F1240000F02BFF18B1C2
:1052000000F0BAFA00E003E0681E45B2002DECDCC5
:1052100000BFFF2084F8450000F052F900F022F9A9
:1052200094F9445010E0206908B9012000E0002002
:1052300048B904F1100000F00DFF08B100F09CFA2D
:10524000681E45B200E001E0002DECDC00BFFF204D
:1052500084F8440000F034F970BD00002DE9F041FD
:1052600004464FF0000800F00DFB4948006808B9FB
:10527000FFF754FE47480068204000286FD1E4B192
:10528000083404F00700C0B104F00700C0F10800C2
:10529000044404F0070008B9012000E0002060B9D0
:1052A00000BF502072B680F31188BFF34F8FBFF359
:1052B0006F8F62B600BF00BFFEE7002C4FD03648AC
:1052C000006884424BD8354E3046056801E02E46D2
:1052D0002D686868A04202D228680028F7D12C48BF
:1052E000006885423BD0306800F1080828683060CB
:1052F0006868001B10281BD92F1907F0070008B990
:10530000012000E0002060B900BF502072B680F399
:105310001188BFF34F8FBFF36F8F62B600BF00BF1E
:10532000FEE76868001B78606C603846FFF7D4FEC3
:10533000194968680968081A17490860084600682A
:1053400017490968884203D2134800681449086065
:10535000104968680968084368600020286000F008
:10536000C7FE08F0070008B9012000E0002060B97E
:1053700000BF502072B680F31188BFF34F8FBFF388
:105380006F8F62B600BF00BFFEE74046BDE8F08108
:105390004400002050000020480000203C00002075
:1053A0004C000020001F4FF080730360001F21F0AD
:1053B00001030360001F054B036014380260001FE7
:1053C0006FF0020303602038704700009551000819
:1053D00001460A69D1E901309860D1E901035860BA
:1053E0005068884201D188685060002008611068C8
:1053F000401E10601068704700F1080141604FF0D6
:10540000FF31816000F10801C1600161002101608C
:10541000704700210161704710B502460B685C1CA3
:105420000CB9106907E002F1080000E04068446828
:1054300024689C42FAD944684C604C68A16088603A
:1054400041600A611468641C146010BD42684A60BF
:1054500093688B60936859609160086103685B1C76
:105460000360704700BF502072B680F31188BFF30D
:105470004F8FBFF36F8F62B600BF0F480068401CAC
:105480000D49086008460068012814D10B480068DF
:10549000C0B208B9012000E0002060B900BF502070
:1054A00072B680F31188BFF34F8FBFF36F8F62B670
:1054B00000BF00BFFEE770475400002004ED00E08D
:1054C0000E48006860B900BF502072B680F31188A2
:1054D000BFF34F8FBFF36F8F62B600BF00BFFEE711
:1054E00006480068401E054908600846006820B963
:1054F000002080F3118800BF00BF704754000020D7
:1055000070B506463546002E43D0083D2C4621494D
:1055100060680968084008B1012000E0002060B917
:1055200000BF502072B680F31188BFF34F8FBFF3D6
:105530006F8F62B600BF00BFFEE7206808B9012088
:1055400000E0002060B900BF502072B680F31188DF
:10555000BFF34F8FBFF36F8F62B600BF00BFFEE790
:105560000C4960680968084098B1206888B9094901
:10557000606809688843606000F084F906496068E3
:1055800009680844044908602046FFF7A5FD00F0BB
:10559000AFFD70BD500000204800002005480068A5
:1055A0006421B0FBF1F0401E4FF0E021486107207C
:1055B000086170470000002070B5FAF769FE0446E4
:1055C000102C18D304F1E02090F8F053174800781D
:1055D000854201DB012000E0002060B900BF5020BF
:1055E00072B680F31188BFF34F8FBFF36F8F62B62F
:1055F00000BF00BFFEE70E48006800F4E0600D4900
:105600000968884201D8012000E0002060B900BF8D
:10561000502072B680F31188BFF34F8FBFF36F8FA6
:1056200062B600BF00BFFEE770BD0000580000205A
:105630000CED00E05C00002070B504460025E4B1EC
:105640001348006808B9012000E0002060B900BFDD
:10565000502072B680F31188BFF34F8FBFF36F8F66
:1056600062B600BF00BFFEE700F00CF90021204643
:10567000FFF734FB00F03CFD05463DB94FF080508C
:1056800004490860BFF34F8FBFF36F8F70BD0000F8
:105690009800002004ED00E02DE9F04704460F4695
:1056A0004FF0000964B900BF502072B680F3118832
:1056B000BFF34F8FBFF36F8F62B600BF00BFFEE72F
:1056C0000FB1012000E0002060B900BF502072B689
:1056D00080F31188BFF34F8FBFF36F8F62B600BFA7
:1056E00000BFFEE72148006808B9012000E0002063
:1056F00060B900BF502072B680F31188BFF34F8F9E
:10570000BFF36F8F62B600BF00BFFEE700F0BAF8CC
:10571000174806682068C5192068B04207D9206874
:10572000A8420BD9B54209D94FF0010906E020681B
:10573000A84201D8B54201D94FF001092560B9F15D
:10574000000F03D0A81B0021FFF7C8FA00F0D0FC1F
:105750008046B8F1000F07D14FF08050054908602E
:10576000BFF34F8FBFF36F8FBDE8F0879800002025
:105770007400002004ED00E001200149086070473A
:105780008400002070B504460D4664B900BF502067
:1057900072B680F31188BFF34F8FBFF36F8F62B67D
:1057A00000BF00BFFEE70548016818312046FFF73B
:1057B00033FE01212846FFF791FA70BD60000020FA
:1057C00060B900BF502172B681F31188BFF34F8FCB
:1057D000BFF36F8F62B600BF00BFFEE703490968E1
:1057E000016003490968416070470000880000209B
:1057F000740000201CB51C4800210B468022CDE916
:1058000000101AA11B4800F0C7FA0446012C17D15A
:1058100000BF502072B680F31188BFF34F8FBFF3E3
:105820006F8F62B600BF4FF0FF3013490860012050
:105830001249086000201249086000F073F812E075
:10584000601C08B1012000E0002060B900BF5020BA
:1058500072B680F31188BFF34F8FBFF36F8F62B6BC
:1058600000BF00BFFEE71CBD9400002049444C452A
:1058700000000000994F0008900000207C000020EC
:105880007400002002480068401C0149086070470D
:10589000980000201E48006818B101201D490860CA
:1058A00034E000201B4908601B480068B0FA80F013
:1058B000C0F11F0101EB8100184A52F8200008B125
:1058C000012000E0002060B900BF502072B680F3D4
:1058D0001188BFF34F8FBFF36F8F62B600BF00BF59
:1058E000FEE701EB81020D4B03EB82004268526838
:1058F000426000F108024368934202D14268526854
:1059000042604268D268064B1A6000BF70470000D0
:1059100098000020840000207800002004900020DF
:10592000600000201CB53349084600780190FF2034
:105930000A4610700846007800909DF8000000F0BC
:10594000F0009DF80020904201D1012000E00020ED
:1059500060B900BF502072B680F31188BFF34F8F3B
:10596000BFF36F8F62B600BF00BFFEE79DF8000077
:1059700000F05000204A10700720204A106009E013
:105980001E480068401E1D4A10609DF80000400639
:10599000000E00909DF8000000F080008028EFD0FD
:1059A000164800680002154A10601046008800F48E
:1059B000E06010600F4A019810701148006840F4D0
:1059C00070000F4908600846006840F070400860A9
:1059D000FFF7E4FD00200B490860FAF71FFC0A48B6
:1059E000006840F0404008490860FAF707FC0020D2
:1059F0001CBD000000E400E0580000205C00002016
:105A000020ED00E05400002034EF00E010B500BFAE
:105A1000502072B680F31188BFF34F8FBFF36F8FA2
:105A200062B600BF00F008FA18B14FF08050044988
:105A3000086000BF002080F3118800BF10BD000087
:105A400004ED00E02DE9FF4383B0064688461D467D
:105A50004FF00009344664B900BF502072B680F39D
:105A60001188BFF34F8FBFF36F8F62B600BF00BFC7
:105A7000FEE7B8F1000F01D1206C08B9012000E069
:105A8000002060B900BF502072B680F31188BFF3C8
:105A90004F8FBFF36F8F62B600BF00BFFEE7022DCE
:105AA00002D1E06B012801D1012000E0002060B9A3
:105AB00000BF502072B680F31188BFF34F8FBFF341
:105AC0006F8F62B600BF00BFFEE700F095F908B91E
:105AD000059808B9012000E0002060B900BF5020FF
